:1000000029C2000058C2000056C2000054C20000BD
:1000100052C2000050C200004EC200004CC200009C
:100020004AC200000C944F100C944F100C944F10C7
:1000300042C2000040C200003EC200003CC20000BC
:100040003AC2000038C2000036C2000034C20000CC
:1000500032C2000030C200002EC200000C94990D84
:100060002AC200000C94340C0C940B0C24C2000027
:1000700022C2000020C200001EC200001CC20000FC
:100080001AC2000018C2000016C2000014C200000C
:100090000C94E10B0C94B80B0EC200000C94801C65
:1000A0000AC2000008C2000006C2000004C200002C
:1000B00002C2000000C20000FEC10000FCC100003E
:1000C000FAC10000F8C10000F6C100000C948E0BCC
:1000D0000C94650BF0C10000EEC10000ECC1000003
:1000E000EAC10000B12EC72EC72EC52EC72EAF2ED7
:1000F000C72EC72EC72EA32EC72EC72EB82EC32E8F
:10010000C12EC72EC72EC72EBF2EDF0AE20AD10A84
:10011000D50ADB0A190BE60AEA0AF00AF40AF80A19
:10012000FE0A020B060B190B0C0B100B140B0040F4
:100130007A10F35A00A0724E18090010A5D4E800F6
:1001400000E87648170000E40B54020000CA9A3B0E
:10015000000000E1F5050000809698000000404294
:100160000F000000A0860100000010270000000022
:10017000E803000000006400000000000A00000026
:1001800000000100000000002C76D888DC674F08D2
:1001900023DFC1DFAE59E1B1B796E5E3E453C63AD8
:1001A000E651997696E8E6C28426EB898C9B62ED4F
:1001B000407C6FFCEFBC9C9F40F2BAA56FA5F49009
:1001C000055A2AF75C936B6CF9676DC11BFCE0E480
:1001D0000D47FEF520E6B500D0ED902E03009435D6
:1001E00077050080841E080000204E0A000000C829
:1001F0000C333333330F986E12831141EF8D21147A
:10020000893BE65516CFFEE6DB18D1844B381BF749
:100210007C1D901DA4BBE424203284725E228100E8
:10022000C9F124ECA1E53D2731303A35353A303774
:10023000004A756E20313220323031390041545A33
:100240000041545A00415445002D2D2D2D2D2D2DAA
:100250002D2D2D2D2D2D2D2D2D00415449002D2DD1
:100260002D2D2D2D2D2D2D2D2D2D2D2D2D2D0041D7
:1002700054493D34006279204D696B616C204861BE
:1002800072740054657374696E672054696E79479F
:1002900050532B2B206C69627261727920762E206C
:1002A00000412073696D706C652064656D6F6E73BD
:1002B00074726174696F6E206F662054696E79473D
:1002C00050532B2B207769746820616E2061747401
:1002D000616368656420475053206D6F64756C6579
:1002E000004465766963654578616D706C652E695B
:1002F0006E6F000A3C2D20000A3C2D20002B2B2B7A
:10030000002B2B2B0000002100240027002A002DA9
:10031000003000330001010000040107010A010060
:10032000000A0B02090C0D0E08070304010000006F
:1003300000000000000000000000000000000000BD
:10034000000000000000000000000012111000007A
:10035000000000000000000000000000000000009D
:100360000000000000000020002300260029002CCF
:10037000002F003200000100000301060109010105
:1003800002102020080810204010204080020102A6
:10039000010804020101020408102040808040206E
:1003A00010080402018004020180402010080402A9
:1003B0000108040201010204081020408001020427
:1003C000081020408000002200250028002B002E6D
:1003D000003100340002010000050108010B010595
:1003E000050505070508080808020202020A0A08AE
:1003F00008040404040101010101010101030303D4
:100400000303030303040707070C0C0C0C0C0C0C70
:100410000C0202020206060606060606060B0B0B77
:100420000B0B0B0B0B41542B474150474554434F8B
:100430004E4E007C3C3E5E2B3D3F2F5B5D3B2C2AAD
:10044000225C001F1C1F1E1F1E1F1F1E1F1E1F00C1
:10045000D73ACB3A11241FBECFEFD1E2DEBFCDBFDA
:1004600000E00CBF15E0A0E0B2E0EEE7F9E800E044
:100470000BBF02C007900D92A03AB107D9F72CE04C
:10048000A0EAB5E001C01D92A536B207E1F712E07F
:10049000C9E2D2E000E006C021970109802FFE01E9
:1004A0000E945A42C832D10780E00807A9F70E948B
:1004B000032E0C94AE44A4CD80E090E00895CF923A
:1004C000DF92EF92FF920F931F93CF93DF937C0104
:1004D000CB018A012091F305222389F0EB016B0106
:1004E000C40ED51ECC15DD0569F06991D701ED91DB
:1004F000FC910190F081E02DC7011995F3CF642F95
:100500000E94B11DC801DF91CF911F910F91FF9003
:10051000EF90DF90CF900895CF93DF931F92CDB7E8
:10052000DEB769832091F3052223D1F02091720672
:10053000203240F021E030E0FC013383228380E070
:1005400090E015C080917306E82FF0E0ED52FA4F6D
:10055000998190838F5F809373068093720605C0A4
:1005600061E0CE0101960E94B11D81E090E00F9004
:10057000DF91CF91089530917206313208F04AC070
:100580008091A1068111FCCF9091D20522E02093A9
:10059000A1066093A0062FEF20939F0610929E065F
:1005A00030939D06E3EDF5E0ABE7B6E020E03217CF
:1005B00021F041914D932F5FFACF10929C0620912C
:1005C0009C06990F922B90939C0690919B069130DC
:1005D00061F410929B0690919C069093BB009091C1
:1005E000BC0093FDF8CF95EC01C095EE9093BC0054
:1005F0009091A1069230E1F390919F069F3F79F090
:1006000080919F06803241F080919F06803331F0C7
:1006100084E005C081E003C082E001C083E0109265
:100620007306109272061092F305089581E080938C
:10063000F3056093D2051092730610927206089526
:10064000EF92FF920F931F93CF93DF93EC01022F52
:100650007883698322967A0110E0101779F0F70108
:1006600081818883808122E0E20EF11C8983CE01A2
:100670000E948F118A831F5F2396EFCFA3E01A9FFA
:10068000C00111240296DF91CF911F910F91FF902D
:10069000EF9008958F929F92AF92BF92CF92DF9288
:1006A000EF92FF920E9494166093B0057093B1058B
:1006B0008093B2059093B3050E9420166093B40511
:1006C0007093B5058093B6059093B7050E94941674
:1006D0006B017C010E9420164B015C012091600A95
:1006E0003091610A4091620A5091630AC701B601D4
:1006F0000E94F7406B017C012091640A3091650AE9
:100700004091660A5091670AC501B4010E94F74002
:100710009B01AC01C701B6010E94F64120E030E028
:1007200040E05FE30E94F7406093540A7093550ADB
:100730008093560A9093570A2091680A222361F009
:100740009B01AC010E94F6416093540A7093550AD4
:100750008093560A9093570A0E948D0D6093500A19
:100760007093510A8093520A9093530A8091540ACD
:100770009091550AA091560AB091570A8093B805F6
:100780009093B905A093BA05B093BB05FF90EF9085
:10079000DF90CF90BF90AF909F908F9008952F9251
:1007A0003F924F925F926F927F928F929F92AF9201
:1007B000BF92CF92DF92EF92FF920F931F93CF934E
:1007C000DF93CDB7DEB7AE970FB6F894DEBF0FBE9E
:1007D000CDBF1E0189E2280E311C41E050E0B1017D
:1007E00082E092E00E94E5118C0197FF13C06CE754
:1007F00074E081E699E00E94B022A801110F660B17
:10080000770B81E699E00E948F2C81E699E00E94A7
:10081000452205C089A59AA5892B09F46AC044E13F
:1008200050E0BE016F5F7F4F80E093E00E94E511D2
:100830009C01892B71F5FE01319680819181982769
:100840008927982781939193E215F305B1F7698180
:100850007A818B819C810E9462422B013C016D81D7
:100860007E818F8198850E9462424B015C0169857F
:100870007A858B859C850E9462426B017C016D8527
:100880007E858F8598890E9462426BA77CA78DA781
:100890009EA737FF07C06CE974E081E699E00E94EB
:1008A000B02227C04092BC055092BD056092BE05A3
:1008B0007092BF058092C0059092C105A092C205BA
:1008C000B092C305C092C405D092C505E092C6059A
:1008D000F092C7058BA59CA5ADA5BEA58093C805C4
:1008E0009093C905A093CA05B093CB0580E090E032
:1008F00002C08FEF9FEFAE960FB6F894DEBF0FBE2B
:10090000CDBFDF91CF911F910F91FF90EF90DF90BE
:10091000CF90BF90AF909F908F907F906F905F909F
:100920004F903F902F900895CF92DF92EF92FF92D9
:10093000CF93DF936091800A8091810A9091820A1F
:1009400075DE65EF70E08091810A9091820A0E94C5
:100950004D2D8091810A9091820A0E944A2D811129
:1009600063C00E948D0D6B017C010E948D0DDC0126
:10097000CB018C199D09AE09BF0984369105A105EB
:10098000B10508F051C043E06091800A8091810A6E
:100990009091820A0E94012D833009F03FC080911E
:1009A000810A9091820ADC01ED91FC910284F38529
:1009B000E02D1995F82E8091810A9091820ADC0130
:1009C000ED91FC910284F385E02D1995EC01809165
:1009D000810A9091820ADC01ED91FC910284F385F9
:1009E000E02D199560E070E07F2D6C2B7D2B80E071
:1009F00090E00E94BA4020E030E04AEF52E40E94CA
:100A0000F74020E030E040E857E30E94F74020E064
:100A100030E040EC50E40E94F5410AC066E070E02E
:100A200080E090E0B5D7A1CF60E070E080EC9FE778
:100A30006093A8057093A9058093AA059093AB05D0
:100A40006091800A8091810A9091820AEFDD63EFC4
:100A500070E08091810A9091820A0E944D2D8091D0
:100A6000810A9091820A0E944A2D811163C00E94DE
:100A70008D0D6B017C010E948D0DDC01CB018C1969
:100A80009D09AE09BF0984369105A105B10508F09D
:100A900051C043E06091800A8091810A9091820A5E
:100AA0000E94012D833009F03FC08091810A90910E
:100AB000820ADC01ED91FC910284F385E02D199509
:100AC000F82E8091810A9091820ADC01ED91FC91CF
:100AD0000284F385E02D1995EC018091810A9091B3
:100AE000820ADC01ED91FC910284F385E02D1995D9
:100AF00060E070E07F2D6C2B7D2B80E090E00E9409
:100B0000BA4022E538EB4FE253E40E94F74020E080
:100B100030E040E857E30E94F74026E636E64BE334
:100B200052E40E94F5410AC066E070E080E090E087
:100B30002FD7A1CF60E070E080EC9FE76093AC0519
:100B40007093AD058093AE059093AF05DF91CF9183
:100B5000FF90EF90DF90CF900895CF93DF9300D078
:100B600000D0CDB7DEB767EB74E0CE0101960E94EE
:100B7000E8216AEA7BE0CE0101960E945621BC0181
:100B800081E699E00E946024CE0101960E94B02186
:100B900080E026960FB6F894DEBF0FBECDBFDF9182
:100BA000CF910895CF93DF93CDB7DEB76B970FB694
:100BB000F894DEBF0FBECDBF6091AA0B7091AB0B56
:100BC00043E1CE0101960E94E113CE0101960E94FD
:100BD000B512E091A80BF091A90B309719F085811F
:100BE000811102C0BADF01C081E06B960FB6F894A4
:100BF000DEBF0FBECDBFDF91CF910895CF92DF92C0
:100C0000EF92FF92CF93DF93CDB7DEB762970FB627
:100C1000F894DEBF0FBECDBF66EC74E081E699E0CC
:100C20000E944922CE0101960E941F25CE01019605
:100C30000E94AA25AB01BC01CE0107960E94912D0E
:100C4000CE0107960E94542DCE0107960E94B02136
:100C5000A6DD892B09F080C14091BC055091BD05EE
:100C60006091BE057091BF05CE0107960E94BE2D12
:100C700069E87BE0CE0101960E94E02168ED73E017
:100C8000CE0101960E943F21BE01695F7F4F0E9405
:100C900056210E94E02CBC0181E699E00E9452247A
:100CA000CE0101960E94B021CE0107960E94B0218C
:100CB0004091C0055091C1056091C2057091C30576
:100CC000CE0107960E94BE2D69E87BE0CE01019619
:100CD0000E94E02160EE73E0CE0101960E943F2168
:100CE000BE01695F7F4F0E9456210E94E02CBC012B
:100CF00081E699E00E945224CE0101960E94B02123
:100D0000CE0107960E94B0214091C4055091C505BF
:100D10006091C6057091C705CE0107960E94BE2D51
:100D200069E87BE0CE0101960E94E02168EE73E065
:100D3000CE0101960E943F21BE01695F7F4F0E9454
:100D400056210E94E02CBC0181E699E00E945224C9
:100D5000CE0101960E94B021CE0107960E94B021DB
:100D60004091C8055091C9056091CA057091CB05A5
:100D7000CE0107960E94BE2D69E87BE0CE01019668
:100D80000E94E02160EF73E0CE0101960E943F21B6
:100D9000BE01695F7F4F0E9456210E94E02CBC017A
:100DA00081E699E00E945224CE0101960E94B02172
:100DB000CE0107960E94B0214091BC055091BD051F
:100DC0006091BE057091BF05CE0107960E94BE2DB1
:100DD00069E87BE0CE0101960E94E02168ED73E0B6
:100DE000CE0101960E943F21BE01695F7F4F0E94A4
:100DF00056210E94E02CBC01CE010D960E94E021FC
:100E0000CE010D960E94D92CCE010D960E94B021E4
:100E1000CE0101960E94B021CE0107960E94B0211A
:100E20004091C0055091C1056091C2057091C30504
:100E3000CE0107960E94BE2D69E87BE0CE010196A7
:100E40000E94E02160EE73E0CE0101960E943F21F6
:100E5000BE01695F7F4F0E9456210E94E02CBC01B9
:100E6000CE010D960E94E021CE010D960E94D92C54
:100E7000CE010D960E94B021CE0101960E94B021B4
:100E8000CE0107960E94B0214091C4055091C5053E
:100E90006091C6057091C705CE0107960E94BE2DD0
:100EA00069E87BE0CE0101960E94E02168EE73E0E4
:100EB000CE0101960E943F21BE01695F7F4F0E94D3
:100EC00056210E94E02CBC01CE010D960E94E0212B
:100ED000CE010D960E94D92CCE010D960E94B02114
:100EE000CE0101960E94B021CE0107960E94B0214A
:100EF0004091C8055091C9056091CA057091CB0514
:100F0000CE0107960E94BE2D69E87BE0CE010196D6
:100F10000E94E02160EF73E0CE0101960E943F2124
:100F2000BE01695F7F4F0E9456210E94E02CBC01E8
:100F3000CE010D960E94E021CE010D960E94D92C83
:100F4000CE010D960E94B021CE0101960E94B021E3
:100F5000CE0107960E94B0218FE89BE00E94E31724
:100F6000CE0101960E941F25CE0101960E94AA255E
:100F7000AB01BC01CE0107960E94912DCE010796D0
:100F80000E94542DCE0107960E94B02183DB409130
:100F9000B0055091B1056091B2057091B305CE01D5
:100FA00007960E94BE2D69E87BE0CE0101960E9463
:100FB000E02169EF73E0CE0101960E943F21BE015E
:100FC000695F7F4F0E9456210E94E02CBC0181E6A0
:100FD00099E00E945224CE0101960E94B021CE01D8
:100FE00007960E94B0214091B4055091B5056091DB
:100FF000B6057091B705CE0107960E94BE2D69E82F
:101000007BE0CE0101960E94E0216FEF73E0CE01FC
:1010100001960E943F21BE01695F7F4F0E945621C9
:101020000E94E02CBC0181E699E00E945224CE018E
:1010300001960E94B021CE0107960E94B0214091F6
:10104000B8055091B9056091BA057091BB05CE0104
:1010500007960E94BE2D69E87BE0CE0101960E94B2
:10106000E02165E074E0CE0101960E943F21BE01BF
:10107000695F7F4F0E9456210E94E02CBC0181E6EF
:1010800099E00E945224CE0101960E94B021CE0127
:1010900007960E94B0214091B0055091B105609132
:1010A000B2057091B305CE0107960E94BE2D69E886
:1010B0007BE0CE0101960E94E02169EF73E0CE0152
:1010C00001960E943F21BE01695F7F4F0E94562119
:1010D0000E94E02CBC01CE010D960E94E021CE01C1
:1010E0000D960E94D92CCE010D960E94B021CE0102
:1010F00001960E94B021CE0107960E94B021409136
:10110000B4055091B5056091B6057091B705CE0153
:1011100007960E94BE2D69E87BE0CE0101960E94F1
:10112000E0216FEF73E0CE0101960E943F21BE01E6
:10113000695F7F4F0E9456210E94E02CBC01CE01C6
:101140000D960E94E021CE010D960E94D92CCE0171
:101150000D960E94B021CE0101960E94B021CE01D1
:1011600007960E94B0214091B8055091B905609151
:10117000BA057091BB05CE0107960E94BE2D69E8A5
:101180007BE0CE0101960E94E02165E074E0CE0193
:1011900001960E943F21BE01695F7F4F0E94562148
:1011A0000E94E02CBC01CE010D960E94E021CE01F0
:1011B0000D960E94D92CCE010D960E94B021CE0131
:1011C00001960E94B021CE0107960E94B0218FE8BF
:1011D0009BE00E94E317CE0101960E941F25CE01DD
:1011E00001960E94AA25AB01BC01CE0107960E9480
:1011F000912DCE0107960E94542DCE0107960E9494
:10120000B02192DBC090A805D090A905E090AA0576
:10121000F090AB0569E87BE0CE0101960E94E021E9
:101220006FE074E0CE0101960E943F21B701A60154
:101230000E940A210E94E02CBC0181E699E00E94F4
:101240005224CE0101960E94B021C090AC05D090EE
:10125000AD05E090AE05F090AF0569E87BE0CE010A
:1012600001960E94E0216AE174E0CE0101960E949D
:101270003F21B701A6010E940A210E94E02CBC0177
:1012800081E699E00E945224CE0101960E94B0218D
:10129000C090A805D090A905E090AA05F090AB05F4
:1012A00069E87BE0CE0101960E94E0216FE074E0E6
:1012B000CE0101960E943F21B701A6010E940A219A
:1012C0000E94E02CBC01CE0107960E94E021CE01D5
:1012D00007960E94D92CCE0107960E94B021CE011C
:1012E00001960E94B021C090AC05D090AD05E09071
:1012F000AE05F090AF0569E87BE0CE0101960E9453
:10130000E0216AE174E0CE0101960E943F21B7011D
:10131000A6010E940A210E94E02CBC01CE01079682
:101320000E94E021CE0107960E94D92CCE0107969B
:101330000E94B021CE0101960E94B0218FE89BE06F
:101340000E94E31762960FB6F894DEBF0FBECDBFC2
:10135000DF91CF91FF90EF90DF90CF900895FC0147
:10136000538D448D252F30E0842F90E0821B930B0A
:10137000541710F0CF96089501970895FC01918DB0
:10138000828D981761F0828DDF01A80FB11D5D96E7
:101390008C91928D9F5F9F73928F90E008958FEF55
:1013A0009FEF0895FC01918D828D981731F0828D09
:1013B000E80FF11D858D90E008958FEF9FEF089560
:1013C000FC01918D228D892F90E0805C9F4F821BC4
:1013D00091098F739927089584EC98E0F1DF21E05B
:1013E000892B09F420E0822F089583E89AE0E8DF52
:1013F00021E0892B09F420E0822F089581E699E00D
:10140000DFDF21E0892B09F420E0822F0895FC0121
:10141000848DDF01A80FB11DA35ABF4F2C91848D7D
:1014200090E001968F739927848FA689B7892C93B2
:10143000A089B1898C91837080648C93938D848D05
:10144000981306C00288F389E02D80818F7D808308
:101450000895EF92FF920F931F93CF93DF93EC01C8
:1014600081E0888F9B8D8C8D981305C0E889F98960
:10147000808185FD25C0F62E0B8D10E00F5F1F4F7C
:101480000F731127E02E8C8DE8120BC00FB607FCEE
:10149000FACFE889F989808185FFF5CFCE01B7DFE2
:1014A000F2CF8B8DFE01E80FF11DE35AFF4FF08262
:1014B0009FB7F8940B8FEA89FB89808180620AC00C
:1014C0009FB7F894EE89FF896083E889F989808164
:1014D0008370806480839FBF81E090E0DF91CF9133
:1014E0001F910F91FF90EF900895CF93DF93EC0140
:1014F000888D8823C1F0EA89FB89808185FD05C03C
:10150000A889B9898C9186FD0EC00FB607FCF5CF6E
:10151000808185FFF2CFA889B9898C9185FFEDCFB5
:10152000CE0175DFE8CFDF91CF91089580E090E0A4
:10153000892B19F063DF81111BC080E090E0892BBB
:1015400019F053DF811117C080E090E0892B19F06A
:1015500043DF811113C080E090E0892BA1F080E08F
:1015600090E0892B81F00E94000081110AC008954B
:101570000E940000E2CF0E940000E6CF0E9400001F
:10158000EACF0C940000089590E0FC013197E2311D
:10159000F10508F04EC08827EB57FF4F8F4F0C9492
:1015A0005A42809180008F7703C0809180008F7DA8
:1015B00080938000089580918000877FF9CF84B563
:1015C0008F7702C084B58F7D84BD08958091B0006F
:1015D0008F7703C08091B0008F7D8093B000089515
:1015E000809190008F7707C0809190008F7D03C01D
:1015F00080919000877F8093900008958091A00053
:101600008F7707C08091A0008F7D03C08091A000DC
:10161000877F8093A0000895809120018F7707C075
:10162000809120018F7D03C080912001877F80936E
:10163000200108953FB7F8948091F9059091FA053B
:10164000A091FB05B091FC0526B5A89B05C02F3FD6
:1016500019F00196A11DB11D3FBFBA2FA92F982FD8
:101660008827820F911DA11DB11DBC01CD0142E053
:10167000660F771F881F991F4A95D1F708958F59D4
:101680009F4FDC018D919C91DC01ED91FC910680D6
:10169000F781E02D19948F599F4FDC018D919C911A
:1016A000DC01ED91FC910484F585E02D19948F59AE
:1016B0009F4FDC018D919C91DC01ED91FC910284A6
:1016C000F385E02D19940E946A441F920F920FB681
:1016D0000F9211240BB60F922F933F934F935F936A
:1016E0006F937F938F939F93AF93BF93EF93FF93EA
:1016F00084EC98E08CDEFF91EF91BF91AF919F91C8
:101700008F917F916F915F914F913F912F910F90AA
:101710000BBE0F900FBE0F901F9018951F920F9247
:101720000FB60F9211240BB60F922F933F934F9346
:101730005F936F937F938F939F93AF93BF93EF9339
:10174000FF9384EC98E00E94B220FF91EF91BF914B
:10175000AF919F918F917F916F915F914F913F9149
:101760002F910F900BBE0F900FBE0F901F901895EA
:101770001F920F920FB60F9211240BB60F922F9358
:101780003F934F935F936F937F938F939F93AF9309
:10179000BF93EF93FF9383E89AE039DEFF91EF91D7
:1017A000BF91AF919F918F917F916F915F914F9179
:1017B0003F912F910F900BBE0F900FBE0F901F9077
:1017C00018951F920F920FB60F9211240BB60F921D
:1017D0002F933F934F935F936F937F938F939F9339
:1017E000AF93BF93EF93FF9383E89AE00E94B220F8
:1017F000FF91EF91BF91AF919F918F917F916F91E9
:101800005F914F913F912F910F900BBE0F900FBEA4
:101810000F901F9018951F920F920FB60F921124E0
:101820000BB60F922F933F934F935F936F937F93DA
:101830008F939F93AF93BF93EF93FF9381E699E0CC
:10184000E6DDFF91EF91BF91AF919F918F917F91D5
:101850006F915F914F913F912F910F900BBE0F9021
:101860000FBE0F901F9018951F920F920FB60F92F8
:1018700011240BB60F922F933F934F935F936F9367
:101880007F938F939F93AF93BF93EF93FF9381E6E3
:1018900099E00E94B220FF91EF91BF91AF919F918B
:1018A0008F917F916F915F914F913F912F910F9009
:1018B0000BBE0F900FBE0F901F9018951F93CF93E4
:1018C000DF93282F30E0F901E15EFC4F8491F901AC
:1018D000E158FC4FD491F901E152FC4FC491CC2363
:1018E000B9F0162F811150DEEC2FF0E0EE0FFF1F44
:1018F000EB53FC4FA591B4919FB7F894111104C01C
:101900008C91D095D82302C0EC91DE2BDC939FBF45
:10191000DF91CF911F910895CF93DF9390E0FC0169
:10192000E158FC4F2491FC01E152FC4F8491882343
:1019300061F190E0880F991FFC01EB5FFC4FC591AE
:10194000D491FC01EB53FC4FA591B491611109C0F6
:101950009FB7F8948881209582238883EC912E2369
:101960000BC0623061F49FB7F8948881322F3095B4
:1019700083238883EC912E2B2C939FBF06C08FB7B7
:10198000F894E8812E2B28838FBFDF91CF910895A3
:101990008F929F92AF92BF92CF92DF92EF92FF927F
:1019A0006B017C0147DE4B015C01C114D104E104F1
:1019B000F104E9F03FDEDC01CB0188199909AA099D
:1019C000BB09883E9340A105B10578F321E0C21A16
:1019D000D108E108F10888EE880E83E0981EA11C6A
:1019E000B11CC114D104E104F10421F7DECFFF9052
:1019F000EF90DF90CF90BF90AF909F908F90089521
:101A00000F931F93CF93DF93EC018C010F591F4F5E
:101A1000D8018D919C91DC01ED91FC910084F185C0
:101A2000E02D1995C15ADF4F2881892B69F41216D0
:101A30005CF460E0822F42DF61E070E080E090E0E3
:101A4000A7DF61E088813ADFF80180819181DC01C4
:101A5000ED91FC910084F185E02DDF91CF911F91F4
:101A60000F911994DF92EF92FF920F931F93CF93F0
:101A7000DF93EC01E62E8D85882321F081E699E045
:101A80000E94A9228E01005A1F4FD8018C9187FD18
:101A90001FC0F801208130E0F901E15EFC4F849124
:101AA000F901E158FC4FF490F901E152FC4FD49058
:101AB000DD20B1F0811168DDED2DF0E0EE0FFF1FAC
:101AC000EB59FC4FA591B491EC91FE2249F01FC057
:101AD000FE01E859FF4F608170E080E090E058DF40
:101AE00083EC90E00197F1F7CF59DF4F888199811E
:101AF000DC01ED91FC910190F081E02D6E2DDF91E4
:101B0000CF911F910F91FF90EF90DF90199461E0BA
:101B100070E080E090E03CDFBCCF2FB7F89460919C
:101B2000F5057091F6058091F7059091F8052FBFA6
:101B300008951F920F920FB60F9211242F933F9387
:101B40008F939F93AF93BF938091F5059091F60586
:101B5000A091F705B091F8053091F40523E0230F2B
:101B60002D3720F40196A11DB11D05C026E8230FD5
:101B70000296A11DB11D2093F4058093F505909365
:101B8000F605A093F705B093F8058091F9059091BB
:101B9000FA05A091FB05B091FC050196A11DB11DB0
:101BA0008093F9059093FA05A093FB05B093FC058B
:101BB000BF91AF919F918F913F912F910F900FBE49
:101BC0000F901F901895CF93DF932CE532E0FC0126
:101BD00031832083EB59FF4FC081D181209701F1E0
:101BE000E881F9810680F781E02DCE011995EA8917
:101BF000FB8980818F7E8083EA89FB898081877F52
:101C00008083EA89FB8980818F778083EA89FB89D9
:101C100080818F7D80838A8D898FDF91CF91089518
:101C2000FC01ED59FF4F80819181DF91CF910C94A0
:101C30000925CF93DF93EC01C6DFCE01DF91CF9171
:101C40000C940143EF92FF920F931F93CF93DF9376
:101C5000CDB7DEB7C154D1090FB6F894DEBF0FBEC1
:101C6000CDBF8C01FC018585882331F063EF72E0E4
:101C700081E699E00E9470247801FEE0EF0EF11CED
:101C8000F80144815581BE016F5F7F4FC8010E94FA
:101C90002F2C892BC9F066E973E0CE0101960E94D2
:101CA0008F44892B79F069E973E0CE0101960E9497
:101CB0008F44892B49F0BE016F5F7F4FC7010E949F
:101CC0009844DECF81E001C080E0CF5BDF4F0FB6EC
:101CD000F894DEBF0FBECDBFDF91CF911F910F9162
:101CE000FF90EF900895FC0144815581BC01625F33
:101CF0007F4F0C942F2C2F923F924F925F926F92B6
:101D00007F928F929F92AF92BF92CF92DF92EF928B
:101D1000FF920F931F93CF93DF9300D0CDB7DEB721
:101D20009B838A835B01442E39017801C12CD12C1D
:101D3000512C242E312C21E0221A3108541409F49C
:101D4000C3C0511005C06DE38A819B810E94A92206
:101D5000D3010D911D913D01C80188278115B4E083
:101D60009B0709F47DC0A8F48115F2E09F07A9F153
:101D7000811523E0920709F479C08115914009F09B
:101D800093C0F701608171818A819B810E94B0229A
:101D90008BC08115B6E09B0709F46EC060F4811515
:101DA000954009F081C0D7014D915C91052E000C42
:101DB000660B770B75C0811527E0920709F469C09F
:101DC0008115984009F070C0F7014081518162810E
:101DD000738155276627772756C0D7018D909C9031
:101DE00011270150110908F45FC0EFEF8E1A9E0A07
:101DF000F401319720812983AA81BB81ED91FC9167
:101E00000190F081E02D622F62956F706A3010F0C2
:101E100087E301C080E3680F8A819B811995AA81BD
:101E2000BB81ED91FC910190F081E02D69816F7093
:101E30006A3010F087E301C080E3680F8A819B81DC
:101E400019950115110569F2AA81BB81ED91FC91EB
:101E500011970190F081E02D6DE2CD011995C1CF70
:101E6000F70140815181628173810DC0D7014D918D
:101E70005D916D917C9114C0F70140815181628127
:101E80007381662777272AE08A819B810E94FC2143
:101E90000BC0D7014C91042E000C550B660B770B31
:101EA0008A819B810E948F2C2C143D0429F06CE2C6
:101EB0008A819B810E94A9225394BFEFCB1ADB0A2F
:101EC000E4E0EE0EF11C3ACF8A819B810E9445220C
:101ED000A114B10419F1AA81BB811D968C918823AC
:101EE00031F068EF72E081E699E00E9470248A8107
:101EF0009B81F9DE892B51F040E050E060E070E01A
:101F00008A819B810E960E94CF3C03C060E070E006
:101F1000CB01F50160837183828393838A819B81E6
:101F20000F900F900F90DF91CF911F910F91FF9025
:101F3000EF90DF90CF90BF90AF909F908F907F9069
:101F40006F905F904F903F902F907CCE7F928F92BA
:101F50009F92AF92BF92CF92DF92EF92FF920F9338
:101F60001F93CF93DF93EC014B016A01722E58014E
:101F70008701FC84F11007C0E881F9810684F785A8
:101F8000E02D61E01995B401CE010E947024950105
:101F9000472DB601CE01AFDE182FF11008C0E88141
:101FA000F9810684F785E02D60E0CE011995812F37
:101FB000DF91CF911F910F91FF90EF90DF90CF9025
:101FC000BF90AF909F908F907F9008954F925F92B7
:101FD0006F927F92BF92CF92DF92EF92FF920F9318
:101FE0001F93CF93DF9300D01F92CDB7DEB762303F
:101FF00008F042C0B62E6C01FC01E25AFF4F80810E
:1020000087FD07C05BDC61E070E080E090E0C0DC51
:102010002FC0E12CF12C00E010E020E0AE014F5F7A
:102020005F4F61E073E0C60191DF8823F9F04B2C2C
:10203000512C612C712C89819A81AB81BC8148160D
:1020400059066A067B06A1F020E0AE014F5F5F4FA4
:102050006DEF72E0C6017ADF49815A816B817C8124
:10206000441655066606770639F403C080E001C0C1
:1020700081E0F601B48601C080E00F900F900F90D0
:102080000F90DF91CF911F910F91FF90EF90DF9014
:10209000CF90BF907F906F905F904F9008951F9268
:1020A0000F920FB60F9211240BB60F922F933F93FE
:1020B0008F939F93AF93BF93CF93DF93EF93FF9350
:1020C000E091A605F091A705309709F43FC0968DE1
:1020D000A685B785858591FF04C09C91892321F44D
:1020E00035C09C91892391F5A389B4899C918589F8
:1020F000809589238C93868997890197F1F7208DA4
:10210000318DC685D78588E0D9011197F1F798817F
:102110008150D1F78091A50590E001968F739927A2
:102120002091A405281729F09091A5058093A50575
:1021300003C0868D8160868F828D938D0197F1F724
:10214000A389B4899C918589892B8C93FF91EF9108
:10215000DF91CF91BF91AF919F918F913F912F913F
:102160000F900BBE0F900FBE0F901F901895D5DCEF
:1021700084E98093BC008091BC0084FDFCCF80E0AA
:102180000895CF93C82FC9DCCC2311F084EC01C093
:1021900084E88093BC008091BC0087FFFCCF8091D5
:1021A000B900887F883341F48091B9001092BC0057
:1021B00094E49093BC0002C08091B900887FCF91D5
:1021C0000895CF938093BB00A8DC84E88093BC0083
:1021D0008091BC0087FFFCCF8091B900887F883157
:1021E00029F08091B900887F803411F480E016C016
:1021F0008091B900C82FC87F8091B900887F803254
:1022000029F08091B900887F883411F4B0DF05C0CF
:102210001092BC0084E48093BC008C2FCF91089571
:102220007CDC84EA8093BC008091BC0087FFFCCFFB
:102230008091B900887F883029F08091B900887F2B
:10224000803111F480E008958091B900887F88334F
:1022500041F48091B9001092BC0094E49093BC00CA
:1022600002C08091B900887F0895CF938093BB000E
:1022700054DC84E88093BC008091BC0087FFFCCFD5
:102280008091B900887F883291F08091B900C82F81
:10229000C87F8091B900887F803311F468DF05C062
:1022A0001092BC0084E48093BC008C2F01C080E0BD
:1022B000CF910895EF92FF920F931F93CF93DF93E7
:1022C000EC017B018A011B821A8288EE93E0A0E078
:1022D000B0E08C839D83AE83BF8384E792E09983D3
:1022E00088838DE190E00E9469429A8F898F0097E0
:1022F00079F02DE1F701DC0101900D922A95E1F7CB
:102300004CE050E0B801CE010C960E949F44188E1C
:10231000DF91CF911F910F91FF90EF900895FC01F5
:102320009C012E5F3F4F8FEF41E39191892798E009
:1023300087FF03C0880F842701C0880F9150C1F721
:10234000E217F30791F70895FF920F931F93CF932E
:10235000DF93C82FF62E072F142F1092FD0560DF94
:102360008093FD0581112BC082ED2BDF8093FD054D
:10237000882321F0813019F582E021C08C2F75DF90
:102380008093FD0581110FC0CF2DD02FCE01810F7D
:10239000911D8C01C017D10751F0899166DF8093A0
:1023A000FD058823B9F3813051F483E008C0DFDEF6
:1023B0008093FD05882319F0813009F487E0DF91CF
:1023C000CF911F910F91FF9008956F927F928F92FE
:1023D0009F92AF92BF92CF92DF92EF92FF920F93B4
:1023E0001F93CF93DF93CDB7DEB7C254D1090FB699
:1023F000F894DEBF0FBECDBF5B016A0120E040E074
:1024000050E0BC01CE018F5B9F4F0E94200361E42E
:1024100070E06C0F7D1F6F5F7F4F41E022968FADA4
:10242000229792DF082E000C990B009709F087C0C5
:102430003601660C771C6C0C7D1C062D611001C0EA
:1024400001E08FEF800F8093FE051092FD05E8DE1E
:102450008093FD05811136C083EDB3DE8093FD05C9
:10246000882321F0813071F585E02CC0CE010196E2
:102470007C0110E08091FE05181313C080E081DE1E
:102480008093FD05813011F486E01CC08835D1F4BD
:102490008091BB00F70181937F011F5F0113EACF99
:1024A00009C081E06EDE8093FD05813069F38035DF
:1024B00079F308C05CDE8093FD05882319F0813034
:1024C00009F487E0082E000C990B009719F5CE014E
:1024D00001964C0175018C01C8018819990986156E
:1024E000970598F4C8011BDFF8019281981310C07A
:1024F0008081F7018083F8018181F70181830D5F7D
:102500001F4FF2E0EF0EF11CE7CF80E090E002C039
:102510008FEF9FEF009799F420E0E22FF0E0EC15A9
:10252000FD0568F4EE0FFF1FEA0DFB1D4081518190
:10253000542745275427518340832F5FEECFCE5B2E
:10254000DF4F0FB6F894DEBF0FBECDBFDF91CF9146
:102550001F910F91FF90EF90DF90CF90BF90AF90C1
:102560009F908F907F906F900895CF93DF93FC01A1
:10257000828193819093920B8093910B84819581BA
:10258000A681B7818093930B9093940BA093950BA6
:10259000B093960B80859185A285B3858093970B28
:1025A0009093980BA093990BB0939A0BEF012C96F4
:1025B000ABE9BBE089918D938BE0A83AB807D1F7DE
:1025C000818D928D9093A90B8093A80B8FE89BE04F
:1025D000DF91CF9108958F929F92AF92BF92CF9249
:1025E000DF92EF92FF920F931F93CF93DF9300D070
:1025F0001F92CDB7DEB7FC018581813079F59481DA
:1026000091FF2CC04389548965897689452B462BD7
:10261000472B09F45CC07F0140E050E0BA01CF01D4
:102620000E94E9278823D1F0F7018788908CA18C3C
:10263000B28CC38CD48C82E090E0A0E0B0E0F601D4
:1026400080839183A283B3839E012F5F3F4FB501A7
:10265000A401C6010E943C27811102C080E037C05E
:1026600000E010E09801B501A401C6010E949C267B
:102670008823A1F389809A80AB80BC80F60187898A
:10268000803129F088EF9FEFAFEFBFE004C088EF03
:102690009FEFA0E0B0E088169906AA06BB06A0F25C
:1026A000F701178A108E118E128E138A148A158ADA
:1026B000168A848180688483C7010E94BE2788238C
:1026C00069F240E050E0BA01C7010E94E9270F908B
:1026D0000F900F900F90DF91CF911F910F91FF906E
:1026E000EF90DF90CF90BF90AF909F908F90089524
:1026F0004F925F926F927F92AF92BF92CF92DF9292
:10270000EF92FF920F931F93CF93DF9300D01F920E
:10271000CDB7DEB78C0149835A836B837C83590123
:10272000C12CD12C7601412C82E0582E612C712CC9
:1027300049815A816B817C819E012F5F3F4FC80187
:102740000E943C27882351F1D301C201F80105847E
:1027500004C0880F991FAA1FBB1F0A94D2F7C80E86
:10276000D91EEA1EFB1E49815A816B817C818789B3
:10277000803129F088EF9FEFAFEFBFE004C088EF12
:102780009FEFA0E0B0E0481759076A077B0780F287
:10279000F501C082D182E282F38281E00F900F9036
:1027A0000F900F90DF91CF911F910F91FF90EF90BD
:1027B000DF90CF90BF90AF907F906F905F904F90E1
:1027C00008952F923F924F925F926F927F928F92D5
:1027D0009F92AF92BF92CF92DF92EF92FF920F93B0
:1027E0001F93CF93DF93CDB7DEB7C756D1090FB68E
:1027F000F894DEBF0FBECDBF5C013B01A6964FAF84
:10280000A6974E018EE1880E911C69E27AE0C40120
:102810000CD71C821B8280E292E09A8389831E82FD
:102820007301FE0131966F0124011F016FE270E018
:10283000C7010E9484440097F1F1F70120812F32F3
:1028400021F4FFEFEF1AFF0AF1CF8E198D3008F057
:102850008CE0082F10E0A801B701CE01885A9F4FE5
:102860000E949F44E8E5F0E0EC0FFD1FE00FF11F30
:102870001082C6010E94C12B21E0AE01485A5F4F71
:10288000B201C6010E94192A81110AC01EAE1DAEF6
:1028900080E292E09CAF8BAF21961FAE219716C0CD
:1028A000E00EF11EC2010E94C12B942D852D260140
:1028B000C92ED82EBBCFC70186199709A8969FAFFE
:1028C0008EAFA897B201CE01CB96AFD6A896EEAD4B
:1028D000FFADA8976E0E7F1EF3018081811108C0A5
:1028E000BE01655C7F4FC101A0D64BED54E04AC0EC
:1028F00019A218A280E292E09F8F8E8F1BA22196D0
:102900008FAD2197811113C0F5011382128288EED9
:1029100093E0A0E0B0E084839583A683B78384E747
:1029200092E091838083128E118E14862EC0825085
:10293000A6962FADA697A301823040F469E27AE013
:10294000C4010E94192A81110DC0DECFBE01655C51
:102950007F4FC4010E94192A8823B1F2CE01CB9681
:102960000E94C12BA6968FADA697867039F049A913
:102970005AA96BA97CA9C4010E94E927B401C1012D
:1029800054D6A301B101C50195DCC501C959DF4F7A
:102990000FB6F894DEBF0FBECDBFDF91CF911F9170
:1029A0000F91FF90EF90DF90CF90BF90AF909F90EE
:1029B0008F907F906F905F904F903F902F900895F1
:1029C000CF92DF92EF92FF920F931F93CF93DF93FB
:1029D000CDB7DEB76D970FB6F894DEBF0FBECDBF93
:1029E0006C018B0180914A0A90914B0A892B09F462
:1029F00043C040E1CE0142960E94B521198E188E47
:102A00001B8E1A8E1D8E1C8E4AE0BE016F5F7F4F9B
:102A100082E090E00E94403EBE016F5F7F4FCE019A
:102A200048960E9486216DED74E0CE0101960E94C9
:102A3000E821BE01685E7F4FCE0101960E945621BB
:102A400064EF74E00E943F21BE016E5E7F4F0E94E2
:102A50005621BC0180914A0A90914B0A0E94602441
:102A6000CE0101960E94B021CE0148960E94B0216D
:102A7000CE0142960E94B02160914C0A70914D0A9D
:102A80006F3F710561F480914A0A90914B0A00975B
:102A900009F494C06AEF74E00E9449228FC08091CB
:102AA000480A9091490A0E941603B8018091480A89
:102AB0009091490A0E944D2D60E08091480A9091C2
:102AC000490A0E94BB02882361F080914A0A9091D2
:102AD0004B0A009709F475C063E275E00E94492231
:102AE00070C042E060914C0A8091480A9091490A76
:102AF0000E94012D760100E010E08091480A90913B
:102B0000490ADC01ED91FC910284F385E02D1995D1
:102B1000F70181937F0120914A0A30914B0A232BC0
:102B200009F443C01B8A1A8A1D8A1C8A1F8A1E8ABE
:102B300040E1BE016F5F7F4F90E00E94403EBE01CA
:102B40006F5F7F4FCE0142960E9486214AE0B80116
:102B5000CE0101960E94B5216DE475E0CE01489644
:102B60000E94E821BE016F5F7F4FCE0148960E9410
:102B7000562162E575E00E943F21BE016E5E7F4FE7
:102B80000E945621BC0180914A0A90914B0A0E94F2
:102B90006024CE0148960E94B021CE0101960E9489
:102BA000B021CE0142960E94B0210F5F1F4F02302C
:102BB000110509F0A2CF81E090E005C08EEF9FEFF4
:102BC00002C08CEF9FEF6D960FB6F894DEBF0FBE7C
:102BD000CDBFDF91CF911F910F91FF90EF90DF90CC
:102BE000CF900895CF93DF931F921F92CDB7DEB79A
:102BF00019821A826BE070E0CE010196E1DE81302D
:102C0000910511F489819A810F900F90DF91CF91F6
:102C10000895CF93DF931F921F92CDB7DEB719822D
:102C20001A826AE070E0CE010196CADE8130910519
:102C300011F489819A810F900F90DF91CF910895BF
:102C40008F929F92AF92BF92CF92DF92EF92FF92BC
:102C50000F931F93CF93DF931F921F92CDB7DEB7D1
:102C600019821A8269E070E0CE010196A9DE8130F6
:102C7000910511F08C011BC00E948D0D6093500ACC
:102C80007093510A8093520A9093530A09811A81D2
:102C9000B801012E000C880B990B0E94BC40609378
:102CA0005C0A70935D0A80935E0A90935F0AB1DFBD
:102CB0007C01B80180E090E00E94BA404B015C01C9
:102CC000B70180E090E00E94BA402DEC3CEC4CE370
:102CD00050E40E94F7409B01AC01C501B4010E9481
:102CE000F5416B017C017EDFBC0180E090E00E9439
:102CF000BA4020E030E040EE5FE30E94F7409B01E5
:102D0000AC01C701B6010E94F5410F900F90DF9111
:102D1000CF911F910F91FF90EF90DF90CF90BF90D8
:102D2000AF909F908F9008958F929F92AF92BF9295
:102D3000CF92DF92EF92FF920F931F93CF93DF9387
:102D40001F921F92CDB7DEB719821A8267E070E03A
:102D5000CE01019635DE8130910511F08C011BC04A
:102D60000E948D0D6093500A7093510A8093520A0D
:102D70009093530A09811A81B801012E000C880B27
:102D8000990B0E94BC406093580A7093590A809333
:102D90005A0A90935B0A3DDF7C01B80180E090E025
:102DA0000E94BA404B015C01B70180E090E00E94B4
:102DB000BA402BE734E14EE050E40E94F7409B011B
:102DC000AC01C501B4010E94F5416B017C010ADF31
:102DD000BC0180E090E00E94BA4021E73DE34AEA6E
:102DE0005FE30E94F7409B01AC01C701B6010E945E
:102DF000F5410F900F90DF91CF911F910F91FF90B0
:102E0000EF90DF90CF90BF90AF909F908F900895FC
:102E1000DC015996ED91FC915A973097B9F083896E
:102E20009489A589B6894285538564857585841BF7
:102E3000950BA60BB70B811520E89207A105B105EC
:102E400038F08FEF9FE7A0E0B0E0089580E090E0D9
:102E50000895CF93DF931F92CDB7DEB76983DC016E
:102E6000ED91FC910280F381E02D41E050E0BE0144
:102E70006F5F7F4F19950F90DF91CF91089585ED8A
:102E80008093BC008091BC0084FDFCCF1092A10611
:102E90000895089508950895E091A3068091A206EB
:102EA000E81730F4F0E0EC55F94F808190E0089598
:102EB0008FEF9FEF08959091A3068091A206981737
:102EC00050F4E92FF0E0EC55F94F208130E09F5F9E
:102ED0009093A30602C02FEF3FEFC90108958091A0
:102EE000A20690E02091A306821B91090895CF933A
:102EF000DF93CDB7DEB76D970FB6F894DEBF0FBE88
:102F0000CDBF442349F1AB01BC011C821B8280E28E
:102F100092E09A8389831E8222E0CE0101960E946C
:102F2000192A811102C090E012C0CE01019653DB34
:102F30008823C9F3CE0101960E94C12C009799F312
:102F400025EEFC0120831E820E941926982F81E025
:102F5000911103C080E001C081E06D960FB6F89436
:102F6000DEBF0FBECDBFDF91CF9108951F93CF93EA
:102F7000DF93CDB7DEB76D970FB6F894DEBF0FBE07
:102F8000CDBFAB011C821B8220E232E03A83298351
:102F90001E8221E0BC01CE0101960E94192A11E097
:102FA000811102C010E004C0CE0101960E94C12B25
:102FB000812F6D960FB6F894DEBF0FBECDBFDF91A7
:102FC000CF911F910895FC01818D928D009711F092
:102FD0000C94BE270895CF93DF93EC01898D9A8DD1
:102FE000009739F481E090E09B838A8380E090E051
:102FF0000BC0FC01138212820E947F28E98DFA8D9A
:1030000022813381232B71F7DF91CF9108953F9275
:103010004F925F926F927F928F929F92AF92BF92E8
:10302000CF92DF92EF92FF920F931F93CF93DF9394
:10303000CDB7DEB72C970FB6F894DEBF0FBECDBF6D
:103040005C01DC015B968D909C905C971696CD9010
:10305000DD90ED90FC901997C114D104E104F104C6
:1030600039F0BFEFCB1ADB0AEB0AFB0A312C07C0A1
:10307000F401C080D180E280F38033243394F401E2
:1030800081859285A385B4859C01AD012F5F3F4F5B
:103090004F4F5F4F29873A874B875C87260137015F
:1030A0001D821E821F821886F40181859285A38568
:1030B000B4852D813E814F815885281739074A07ED
:1030C0005B0708F063C089859A85AB85BC858C1544
:1030D0009D05AE05BF0550F482E0C82ED12CE12C31
:1030E000F12C92E0492E512C612C712C9E012F5F06
:1030F0003F4FB701A601C4010E943C27882309F471
:1031000045C089819A81AB81BC81892B8A2B8B2B0D
:1031100041F0260137019FEF491A590A690A790AD5
:1031200005C0C414D504E604F70491F02D813E8156
:103130004F8158852F5F3F4F4F4F5F4F2D833E8309
:103140004F8358873FEFC31AD30AE30AF30AACCF81
:103150000FEF1FEF2FEF3FE0B301A201C4010E9468
:103160009C26882399F0D50116964D915D916D911D
:103170007C911997411551056105710549F093013D
:103180008201C4010E949C26811102C080E02AC0F5
:10319000D50116964D925D926D927C9219973320CF
:1031A00051F0D301C2010196A11DB11DF40180832C
:1031B0009183A283B383F5018789908DA18DB28D10
:1031C000892B8A2B8B2B69F4D50157964D925D92F2
:1031D0006D927C925A9714968C91149780681496ED
:1031E0008C9381E02C960FB6F894DEBF0FBECDBF56
:1031F000DF91CF911F910F91FF90EF90DF90CF90D3
:10320000BF90AF909F908F907F906F905F904F9006
:103210003F90089561E0FC0184810C945E0C8091E4
:103220006B068F3F39F48EBD00000DB407FEFDCF55
:103230008EB50895F894E0916606F0916706908146
:1032400080916506892B808328E080E0E091690603
:10325000F0916A06308190916806392B3083880F8F
:10326000A0916306B09164064C91309162063423BC
:1032700009F08160308190959323908300000000D5
:10328000215021F7789408950F931F93CF93DF93E4
:10329000EB010E948D0D8B01C2DF8F3F49F00E9430
:1032A0008D0D601B710B6C177D07B0F380E001C0C2
:1032B00081E0DF91CF911F910F910895CF93DF931C
:1032C000EC018E81882379F08F8198859C012F5F96
:1032D0003F4F38872F838230924010F4A0DFF4CF25
:1032E000CE0198DF1E82DF91CF91089590916B06F9
:1032F0009F3F39F48EBD00000DB407FEFDCF8EB5A3
:103300000895F89428E0E0916906F0916A0630810A
:1033100040916806942F909539233083A0916606DA
:10332000B0916706909165063C9187FF02C0932B90
:1033300002C0909593239C939081942B9083880F47
:10334000215009F70000000000000000E09169062C
:10335000F0916A0690818091680680958923808328
:10336000789408958F929F92AF92BF92FF920F939D
:103370001F93CF93DF93EC01F62E49015A019EDF94
:1033800060E08C810E945E0C6CE271E0CE017CDF1B
:103390008F2D8064ABDF08E110E0D501C401002E61
:1033A00004C0B695A795979587950A94D2F79EDFA6
:1033B00008501109083F8FEF180779F7FF2029F00F
:1033C00088E0F81204C087E803C085E901C08FEFE8
:1033D0008DDF10E024DF8A8787FF04C01F3F11F0D4
:1033E0001F5FF8CFDF91CF911F910F91FF90BF909A
:1033F000AF909F908F900895AF92BF92CF92DF923F
:10340000EF92FF920F931F93CF93DF93EC0169012B
:10341000C801820F931F8130924008F06AC08E81EC
:10342000882371F088819981AA81BB8184179507CF
:10343000A607B70729F48F819885C816D90698F58D
:10344000488359836A837B838B85833039F089E095
:10345000440F551F661F771F8A95D1F79A01AB015C
:1034600061E1CE017FDF882319F083E08D8341C0C5
:103470000E948D0D5B01D3DE8A878F3F49F40E9445
:103480008D0D6A197B096D327140A8F38FE003C07E
:103490008E3F29F08DE08D83CE01BCDE2AC01886D8
:1034A0001F8281E08E838F8198858C159D0538F46D
:1034B000B6DE8F819885019698878F83F4CF670158
:1034C000E00EF11EEC14FD0429F0A9DEF601819353
:1034D0006F01F8CF8F819885080F191F18870F8308
:1034E0008985882319F00115124038F0CE01E6DEF7
:1034F00004C0CE018FDE80E001C081E0DF91CF917A
:103500001F910F91FF90EF90DF90CF90BF90AF9001
:103510000895CF92DF92EF92FF920F931F93CF9374
:10352000DF93EC017901411551056105710511F435
:1035300082E15DC08B85833039F0E9E0440F551F8F
:10354000661F771FEA95D1F79A01AB0168E1CE01BA
:1035500009DF882311F084E04AC08C8597013E5F23
:103560006901882321F1F70100E010E0819190E0EA
:1035700081279C0144E0359527954A95E1F78227FC
:103580009327102F0027082719279C01322F222765
:103590003295307F0227132775E0880F991F7A959F
:1035A000E1F708271927CE16DF0601F702C00FEF53
:1035B0001FEF8EEF9BDEF70181917F0197DECE1426
:1035C000DF04C9F7812F92DE802F90DE28DE8A8704
:1035D0008F71853029F081E18D83CE011BDE08C01B
:1035E00068E572E0CE0150DE811106C085E18D8371
:1035F000CE0110DE80E010C020E030E0A9016DE0D7
:10360000CE01B0DE811103C00ADE882311F084E10F
:10361000EECFCE01FFDD81E0DF91CF911F910F91C1
:10362000FF90EF90DF90CF900895FC01DB011296A0
:103630008D919C9113979383828380E292E0918392
:10364000808314968C911497848315968C9115978A
:10365000858316964D915D916D917C911997468366
:103660005783608771871A964D915D916D917C911A
:103670001D9742875387648775871E964D915D918C
:103680006D917C91519746875787608B718B5296CD
:103690008C915297828B53964D915D916D917C9157
:1036A0005697438B548B658B768B57964D915D91D6
:1036B0006D917C915A97478B508F618F728F5B967B
:1036C0008D919C915C97948F838F08954F925F9218
:1036D0006F927F92AF92BF92CF92DF92EF92FF9262
:1036E0000F931F93CF93DF931F92CDB7DEB7FC01EB
:1036F0002581222309F4C0C0848180FFBDC0838955
:103700009489A589B6894284538464847584841518
:103710009505A605B70509F4AFC06F015201F1E0A8
:10372000BF22D6015B968D919C915C97B301A2015B
:1037300039E076956795579547953A95D1F72230B8
:1037400071F4FC01828D938DA48DB58D8A019B014E
:10375000080F191F2A1F3B1FC901B8014AC0DC010D
:1037600014961C9111501423A114B104F9F41111F1
:103770001DC045284628472851F4F6018789908DB9
:10378000A18DB28D86839783A087B1870FC0D601A4
:1037900016964D915D916D917C91199796012A5FD6
:1037A0003F4F0E943C27882309F466C0F601238D11
:1037B000348D86819781A085B1850297A109B109D1
:1037C000AC01BD01F901058404C0440F551F661FFB
:1037D000771F0A94D2F786859785A089B189840FCF
:1037E000951FA61FB71FBC01CD01610F711D811D63
:1037F000911DD60114962C9126FF0DC04090000219
:103800005090010260900202709003024616570623
:103810006806790699F440E00E945426882361F1F5
:10382000F501EC53F94FDE0111969F012F5F3F4FD9
:103830002E173F0791F081918D93FACFFE013196BB
:103840007F0101E010E09501AB01BC0180916C06A5
:1038500090916D06D1DD882379F0F60182859385FC
:10386000A485B5850196A11DB11D82879387A48784
:10387000B587898190E002C08FEF9FEF0F90DF91B5
:10388000CF911F910F91FF90EF90DF90CF90BF905D
:10389000AF907F906F905F904F900895FC01818D65
:1038A000928D009709F012CF8FEF9FEF08950F933D
:1038B0001F93CF93DF93FC01818D928D0097B1F020
:1038C000EF0104DF8C010F3F8FEF180791F0898D16
:1038D0009A8DFC0142855385648575854150510957
:1038E000610971090E94E927C80105C080E090E0E4
:1038F00002C08FEF9FEFDF91CF911F910F9108953D
:103900001F920F920FB60F9211240BB60F922F93A6
:103910003F934F935F936F937F938F939F93AF9357
:10392000BF93EF93FF938091B900887F803609F4AD
:103930009CC068F5883209F45BC090F4803109F4CA
:1039400054C038F4882309F4F6C0883009F44DC017
:10395000F5C0883109F44CC0803209F45DC0EEC076
:10396000803409F468C048F4803309F455C08833C2
:1039700009F0E4C080939F06D8C0803509F44FC099
:10398000883509F45DC0883409F0D8C0D6C08839BC
:1039900009F4C7C0A8F4883709F467C038F488363A
:1039A00009F463C0803709F460C0C8C0883809F4DE
:1039B000B8C0803909F45FC0803809F0BFC05BC06F
:1039C000803B09F486C038F4803A09F466C0883A2E
:1039D00009F47FC0B3C0803C09F4A7C0883C09F457
:1039E000A4C0883B09F48AC0A9C080919C0610C07D
:1039F00090919E0680919D06981770F5E0919E0625
:103A000081E08E0F80939E06F0E0E558F94F8081AB
:103A10008093BB0085EC86C080939F068EC0E091AA
:103A20009E0681E08E0F80939E068091BB00F0E0A1
:103A3000E558F94F808390919E0680919D066EC057
:103A4000E0919E0681E08E0F80939E068091BB00E0
:103A5000F0E0E558F94F80838091A00681116DC098
:103A600081E080939B0684EA61C083E08093A10695
:103A700010926106CFCF80916106803208F051C06C
:103A8000E091610681E08E0F809361068091BB001A
:103A9000F0E0EF5BF94F8083BDCF85EC8093BC00F5
:103AA0001092A10680916106803230F4E0916106A7
:103AB000F0E0EF5BF94F10826091610670E0E091F9
:103AC0006E06F0916F0681E496E0199510926106FA
:103AD00035C084E08093A1061092400610923F0604
:103AE000E0917006F0917106199580913F06811161
:103AF00005C081E080933F0610921F06E0914006CA
:103B000081E08E0F80934006F0E0E15EF94F808106
:103B10008093BB009091400680913F06981708F46F
:103B200079CF85E88093BC0009C085EC8093BC0008
:103B30001092A10603C010929F06A1D9FF91EF91A8
:103B4000BF91AF919F918F917F916F915F914F91B5
:103B50003F912F910F900BBE0F900FBE0F901F90B3
:103B6000189540913F06262F30E0240F311D213259
:103B70003105DCF42091A1062430C9F4FC0180E079
:103B800090E0861758F430913F062191DC01A15E48
:103B9000B94FA30FB11D2C930196F3CF80913F062F
:103BA000680F60933F0680E0089581E0089582E009
:103BB00008950895CF92DF92EF92FF920F931F9393
:103BC000CF93DF936C017A018B01C0E0D0E0CE157A
:103BD000DF0581F0D8016D918D01D601ED91FC9149
:103BE0000190F081E02DC6011995892B11F02196E5
:103BF000EECF7E01C701DF91CF911F910F91FF9012
:103C0000EF90DF90CF9008958F929F92AF92BF92E6
:103C1000CF92DF92EF92FF92CF93DF93C82F8EEF78
:103C200099E090936D0680936C06CC2369F1C530C2
:103C300010F080E00CC140E060E070E0CB010E9439
:103C400054268823B1F320E1C29FC00111248C5473
:103C5000994FFC01E254FE4F20812F7751F73C969B
:103C6000408151816281738144365105610571053E
:103C700000F33497C080D180E280F380C114D10476
:103C8000E104F10421F4D5CFC12CD12C760140E020
:103C9000C701B6010E945426882359F28091CF06AD
:103CA0009091D0068115924021F6A091D406AA23C6
:103CB00009F4BFCF6091D2067091D30661157105EA
:103CC00009F4B7CF2091D106222309F4B2CFA093F3
:103CD0001D0A20930F0A80E030E041E050E0C82F39
:103CE000FA01082E02C0EE0FFF1F0A94E2F72E170A
:103CF0003F0739F08F5FC83091F789E08093180A49
:103D000098CF8093180A2091DA063091DB062115AE
:103D1000310519F040E050E008C02091E8063091EC
:103D2000E9064091EA065091EB062093100A309381
:103D3000110A4093120A5093130A46015701860E46
:103D4000971EA11CB11C80921E0A90921F0AA0927D
:103D5000200AB092210AE091D506F091D606F093A0
:103D6000240AE093230AB0E00E94DC41860E971EED
:103D7000A81EB91E8092250A9092260AA092270AB0
:103D8000B092280A85E0EE0FFF1F8A95E1F7E15017
:103D9000FE4FEF2FFF27E6958E0E9F1EA11CB11C34
:103DA0008092190A90921A0AA0921B0AB0921C0AD9
:103DB0002091D7063091D8062115310521F0A901AF
:103DC00060E070E008C04091E4065091E506609123
:103DD000E6067091E706D701C60188199909AA0974
:103DE000BB09840F951FA61FB71F04C0B695A795E2
:103DF00097958795CA95D2F78093140A9093150AE0
:103E0000A093160AB093170A853F2FE09207A105E9
:103E1000B10510F48CE018C0853F9F4FA105B10596
:103E200010F480E111C08091F0069091F106A0910C
:103E3000F206B091F3068093250A9093260AA09388
:103E4000270AB093280A80E28093220A81E0DF915A
:103E5000CF91FF90EF90DF90CF90BF90AF909F9069
:103E60008F9008950F931F93CF93DF93EC01888178
:103E70009981009729F02A813B812617370788F41A
:103E80008B016F5F7F4F0E948A43009761F0998397
:103E900088831B830A832C813D81232B11F4FC0131
:103EA000108281E001C080E0DF91CF911F910F91DE
:103EB00008955F926F927F928F929F92AF92BF927E
:103EC000CF92DF92EF92FF920F931F93CF93DF93E6
:103ED000CDB7DEB7C754D1090FB6F894DEBF0FBE19
:103EE000CDBF5C013B0119A218A280E292E09F8F36
:103EF0008E8F1BA21C821B829A8389831E8200E004
:103F000010E06E018EE1C80ED11C89E2E82E8AE035
:103F1000F82EF501E00FF11F80818F3211F40F5F51
:103F20001F4FD501A00FB11FFE01FB9680E090E06E
:103F30004F012D912F3249F0222339F001960F5F66
:103F40001F4F21938C309105A1F7F401E80FF91F61
:103F50001082F501E00FF11F80818F3211F40F5FA5
:103F60001F4FF501E00FF11F508041E0511040E07C
:103F700020E030E0B401C701F301199581110AC0B6
:103F8000F9E2EF16FAE0FF0619F0C7010E94C12B13
:103F900080E029C05520B9F021E0A401B701C60195
:103FA0000E94192A982E89E2E8168AE0F806A9F0FC
:103FB000C7010E94C12B992059F39E2D8F2D7601A8
:103FC000C92ED82EA6CF99E2E9169AE0F90619F083
:103FD000C7010E94C12B81E006C09920C9F2FE01F1
:103FE00031967F01EACFC95BDF4F0FB6F894DEBF91
:103FF0000FBECDBFDF91CF911F910F91FF90EF903A
:10400000DF90CF90BF90AF909F908F907F906F90F8
:104010005F900895EF92FF920F931F93CF93DF93DA
:1040200000D01F92CDB7DEB719821A821B821C8284
:10403000E12CF12C00E010E020E0AE014F5F5F4F7B
:1040400065E274E080E29BE00E94A60F81E0498176
:104050005A816B817C81452B462B472B09F480E0EC
:104060000F900F900F900F90DF91CF911F910F91B4
:10407000FF90EF900895CF93DF93CDB7DEB7A09771
:104080000FB6F894DEBF0FBECDBF242FAB01BC012D
:10409000CE0101960E942003009749F04FEF480F90
:1040A000BE016E5F7F4F89810E94A41101C080E034
:1040B000082E000C990BA0960FB6F894DEBF0FBE29
:1040C000CDBFDF91CF9108951092A3061092A20662
:1040D00010927306109272061092A10681E08093EE
:1040E000A00610929B0661E084E10E945E0C61E0F4
:1040F00085E10E945E0CE9EBF0E080818E7F808399
:1041000080818D7F808388E48093B80085E48093EC
:10411000BC0089E497E190937106809370068AE46D
:1041200097E190936F0680936E0608950F931F9307
:10413000CF93DF931F921F92CDB7DEB78C01CE01D4
:1041400001960E94E0148130910529F429813A8179
:10415000F801318320830F900F90DF91CF911F9151
:104160000F910895FC01A089B1898C91A689B78926
:1041700082FD0FC09C91818D8F5F8F73228D82177E
:1041800049F0218DDF01A20FB11D5D969C93818FB7
:1041900008958C910895EF92FF920F931F93CF9300
:1041A000DF936115710511F480E01BC041155105C5
:1041B000B9F07B01EC018C819D818A01080F191FE8
:1041C000B801CE014FDE882379F3288139818C81B3
:1041D0009D81B701820F931F0E9498441D830C8319
:1041E00081E0DF91CF911F910F91FF90EF900895A3
:1041F000CF93DF93EC0188819981009711F00E94A1
:104200000143198218821D821C821B821A82DF914F
:10421000CF910895EF92FF920F931F93CF93DF9367
:10422000CDB7DEB764970FB6F894DEBF0FBECDBF33
:104230007C01CB01BA018E010F5F1F4F22E044E0E9
:104240000E94B03CFC0101900020E9F73197AF01DA
:10425000481B590BBC01C7019EDF811102C0C70179
:10426000C7DFC70164960FB6F894DEBF0FBECDBF9F
:10427000DF91CF911F910F91FF90EF900895CF9311
:10428000DF93EC016115710559F0FB0101900020ED
:10429000E9F73197AF01461B570B7DDF811102C053
:1042A000CE01A6DFCE01DF91CF910895CF93DF93AA
:1042B000EC01FB0144815581608171816CDF8111CA
:1042C00002C0CE0195DFCE01DF91CF910895EF922C
:1042D000FF920F931F93CF93DF93EC017B018A0131
:1042E000BA01C0DD811103C0CE0182DF07C01D838A
:1042F0000C83B701888199810E949844CE01DF9197
:10430000CF911F910F91FF90EF900895CF93DF937E
:10431000EC016115710551F0FB0101900020E9F7F6
:104320003197AF01461B570BD2DF01C061DFCE01D1
:10433000DF91CF910895CF93DF93EC01FB018617B6
:10434000970751F0608171816115710521F04481F9
:104350005581BDDF01C04CDFCE01DF91CF910895C3
:10436000FC01808191810C9401430F931F93CF93A3
:10437000DF93CDB7DEB762970FB6F894DEBF0FBEFE
:10438000CDBF8C01CB01F801118210821382128201
:104390001582148250E0BE016F5F7F4F0E940B3E7A
:1043A000BE016F5F7F4FC801B1DF62960FB6F89410
:1043B000DEBF0FBECDBFDF91CF911F910F9108954A
:1043C000FC01118210821382128215821482B3CFF3
:1043D000FC011182108213821282158214826115EF
:1043E000710549F0FB0101900020E9F73197AF0119
:1043F000461B570B6CCF08958F929F92AF92BF923E
:10440000EF92FF920F931F93CF93DF93CDB7DEB759
:10441000A1970FB6F894DEBF0FBECDBF7C01FA01A5
:10442000CB0119A2223008F42AE08E010F5D1F4F44
:10443000822E912CA12CB12CBF01A50194010E94C8
:10444000BA41F901CA01015011096A3014F4605DE2
:1044500001C0695CD8016C93232B242B252B61F7B9
:10446000B801C7010E94EE2DA1960FB6F894DEBFE9
:104470000FBECDBFDF91CF911F910F91FF90EF90B5
:10448000BF90AF909F908F90089567E575E00C9472
:10449000EE2D0F931F93CF93DF93EC010E94EE2D2F
:1044A0008C01CE01F2DF800F911FDF91CF911F9120
:1044B0000F910895CF93DF93D82FC92F60914C0AA5
:1044C00070914D0A6F3F710551F480914A0A9091A5
:1044D0004B0A0097B1F16EEF74E0DBDF32C08091E0
:1044E000480A9091490A0E94160360E070E08091AA
:1044F000480A9091490A0E944D2D8091480A909156
:10450000490ADC01ED91FC910190F081E02D6D2FC5
:1045100019958091480A9091490ADC01ED91FC912E
:104520000190F081E02D6C2F199561E08091480A8F
:104530009091490A0E94BB02811106C081E090E07F
:1045400005C08EEF9FEF02C08DEF9FEFDF91CF91FF
:104550000895DC01ED91FC910190F081E02D19941A
:104560000C94EE2DCF92DF92EF92FF920F931F9358
:10457000CF93DF938C016AE575E081E699E0F0DF87
:1045800061E085E30E948C0C1092090A1092070AE0
:104590001092040A1092030A10920A0A8AE0809389
:1045A000020A8BE0809375068CE0809374068DE0A0
:1045B00080936B060E948D0DEB0161E08091020AF1
:1045C0000E948C0C8EEF99E00E940A1960E08CE04A
:1045D0000E948C0C61E08BE00E948C0C61E08DE00D
:1045E0000E948C0CECEEF3E0E491F0E0EE0FFF1F84
:1045F000EB53FC4F8591949190936A0680936906E2
:10460000ECE8F3E0E491E0936806EAEEF3E0E4918D
:10461000F0E0EE0FFF1FEB53FC4F859194919093C8
:10462000670680936606EAE8F3E0E491E0936506A6
:10463000EBEEF3E0E491F0E0EE0FFF1FEB59FC4FDF
:10464000859194919093640680936306EBE8F3E080
:10465000E491E0936206EAE0FE2E8FEF0E94761965
:10466000FA94F110FACF60E08091020A0E945E0C89
:1046700020E030E0A90160E08EEF99E00E94B219DD
:10468000F82E8093080A81E0F81649F00E948D0DFB
:104690006C1B7D0B613D774058F381E056C02AEAE0
:1046A00031E040E050E068E08EEF99E00E94B219FE
:1046B00082FF03C0F092090A10C044E0F42E0E9469
:1046C0000F198093080AFA94F110F9CF8A3A11F081
:1046D00082E03BC082E08093090A8091090A82301F
:1046E00021F0C12CD12C760105C0C12CD12CE12C9C
:1046F00030E4F32E20E030E0A90167E38EEF99E08B
:104700000E94B219A701960169E28EEF99E00E941A
:10471000B2198093080A882349F00E948D0D6C1B02
:104720007D0B613D774030F388E00FC08091090A2E
:10473000823001F520E030E0A9016AE38EEF99E0D4
:104740000E94B219882341F086E08093030A8EEF1D
:1047500099E00E940A19A0C00E940F19807C803C39
:1047600019F483E08093090A0E940F190E940F191F
:104770000E940F198EEF99E00E940A1980916B0632
:104780008F3F31F48CB58C7F8CBD8DB58E7F8DBD08
:1047900081E03ADA811105C080E036DA882309F435
:1047A0007BC080912E0A811177C08091220A8031CE
:1047B00009F582E080932E0A1092400A1092410A75
:1047C0001092420A1092430A8091230A9091240A7F
:1047D000A0E0B0E025E0880F991FAA1FBB1F2A9513
:1047E000D1F780933C0A90933D0AA0933E0AB09380
:1047F0003F0A1EC0803209F04FC083E080932E0A2A
:104800004091250A5091260A6091270A7091280A42
:104810004093400A5093410A6093420A7093430ABE
:104820002CE33AE08BE09AE00E9478138823A1F110
:104830008BE09AE09093450A8093440A81E080934C
:104840002D0A10922F0A1092300A1092310A1092FB
:10485000320A1092330A1092340A1092350A1092DA
:10486000360A1092370A1092380A1092390A1092BA
:104870003A0A10923B0A62E775E081E699E009DEA8
:10488000B8018AEA9BE0DF91CF911F910F91FF90D1
:10489000EF90DF90CF904FCD64E875E081E699E02E
:1048A000F8DDFFCFDB0114964D915C9115976D916A
:1048B0007C91DC01ED91FC910280F381E02D199453
:1048C0000F931F93CF93DF93EC01ECDF8C01CE01AC
:1048D000DCDD800F911FDF91CF911F910F91089523
:1048E000EF92FF920F931F93CF93DF938C017B0185
:1048F000C0E0D0E0F701EC0FFD1F6491662361F08A
:10490000D801ED91FC910190F081E02DC80119953D
:10491000892B11F02196EECFCE01DF91CF911F911F
:104920000F91FF90EF9008950F931F93CF93DF9314
:10493000EC01D6DF8C01CE01A8DD800F911FDF9145
:10494000CF911F910F9108951F93CF93DF93EC01A7
:1049500080E2689FF0011124EC53F94F9385917127
:1049600029F0842F827411F080E04FC0142F6A8BDD
:104970008091000290910102A0910202B091030285
:104980008E879F87A88BB98B4489558960E070E03A
:10499000BA0155274427828D938DA0E0B0E0482BC3
:1049A000592B6A2B7B2B4F8B588F698F7A8F83857E
:1049B000887151F4848D958DA68DB78D8B8B9C8BD2
:1049C000AD8BBE8B81E00CC0803171F69E012D5EF7
:1049D0003F4F8B8D9C8D0E947813882329F284E0B1
:1049E0008D83812F8F708C831E821F82188619867B
:1049F0001A861B861C861D8616FF06C0CE01DF9117
:104A0000CF911F910C94EB1281E0DF91CF911F9118
:104A10000895E091A605F091A705E817F90769F454
:104A2000A389B4899C918589809589238C93109260
:104A3000A7051092A60581E0089580E008958F9261
:104A40009F92AF92BF92CF92DF92EF92FF92CF935D
:104A5000DF93EC010E948D0DC090A005D090A105C0
:104A6000E090A205F090A30520E8C21A23E4D20A40
:104A70002DE6E20A28E3F20A28EE33E040E050E0B7
:104A80000E94BA41C20ED31EE41EF51E8CE3882E8E
:104A9000912CA12CB12CC701B601A50194010E9453
:104AA000BA416D83CA01B901A50194010E94BA41BE
:104AB0006C83C701B60120E13EE040E050E00E9477
:104AC000BA41CA01B90128E130E040E050E00E945B
:104AD000BA416B83C701B60120E831E541E050E0FF
:104AE0000E94BA4118824881542F537081E009F026
:104AF00080E090E0BC0163597E4F2617370738F0FD
:104B0000281B390B2D5631404F5F4883ECCF81E095
:104B100089838981E82FF0E0EE5BFB4FE49151112E
:104B200003C0823009F4EF5FF0E02E173F0720F05A
:104B30002E1B3F0B8F5FECCF2F5F2A83CE01DF91BF
:104B4000CF91FF90EF90DF90CF90BF90AF909F906C
:104B50008F900895EF92FF920F931F93CF93DF935F
:104B6000EC0169813881432F50E08A8190E0E3E4D1
:104B7000F4E021E0261730F47491870F911D2F5F28
:104B80003196F8CF633018F0337009F401966DE672
:104B900071E0469F9001479F300D569F300D1124C4
:104BA000215031094D5F5F4F569547955695479572
:104BB000240F351F280F391FA8E1B0E00E94E641FD
:104BC0002B817B018C01E20EF11C011D111DA8013E
:104BD0009701ACE3B0E00E94DC412C817B018C01A9
:104BE000E20EF11C011D111DA80197010E94DC417C
:104BF0002D81DC01CB01820F911DA11DB11DBC01D6
:104C0000CD0160587C4B8249974CDF91CF911F9129
:104C10000F91FF90EF900895FC01908190539A308E
:104C200008F090E0818180532AE0929F800D11244A
:104C30000895809176068823A9F140910002509151
:104C40000102609102027091030224EC36E080912F
:104C50006C0690916D060E94891A811102C080E055
:104C60000895409177065091780660917906709189
:104C70007A06411551056105710591F024EC36E085
:104C800080916C0690916D060E94891A882339F3F1
:104C900010927706109278061092790610927A0692
:104CA0001092760681E008958F929F92AF92BF9204
:104CB000EF92FF920F931F93CF934B015C01C42F90
:104CC0008091000290910102A0910202B091030232
:104CD00088159905AA05BB05F9F0ABDF811102C063
:104CE00080E020C084ECE82E86E0F82E00E012E0A0
:104CF00020E030E0B501A40180916C0690916D0632
:104D00000E94FC19882361F38092000290920102B4
:104D1000A0920202B092030280917606C82BC09343
:104D2000760681E0CF911F910F91FF90EF90BF9099
:104D3000AF909F908F9008954F925F926F927F9265
:104D40008F929F92AF92BF92CF92DF92EF92FF929B
:104D50000F931F93CF93DF93EC0142305105610510
:104D6000710510F480E077C089859A85AB85BC8594
:104D70000196A11DB11D84179507A607B70790F3EB
:104D8000CB88DC88ED88FE888F89803129F4BB27A9
:104D9000A72F962F852F09C0DB01CA01E7E0B69542
:104DA000A79597958795EA95D1F7480159012A016A
:104DB0003B01C80ED91EEA1EFB1E80910002909195
:104DC0000102A0910202B0910302C816D906EA06B8
:104DD000FB0681F48F898031A1F4B301A20155272C
:104DE00066277727440F551FFA01EC53F94F91823C
:104DF000808218C040E0C701B60156DF8111EACFBA
:104E0000B1CFB301A2014F77552766277727440F0B
:104E1000551F440F551FFA01EC53F94F80829182C0
:104E2000A282B382809176068160809376068A8919
:104E3000823080F08D819E81AF81B885C80ED91EE9
:104E4000EA1EFB1EC0927706D0927806E0927906A1
:104E5000F0927A0681E0DF91CF911F910F91FF9040
:104E6000EF90DF90CF90BF90AF909F908F907F900A
:104E70006F905F904F9008958F929F92AF92BF92E4
:104E8000CF92DF92EF92FF920F931F93CF93DF9316
:104E9000FC0181859285A385B4850196A11DB11D74
:104EA00084179507A607B70710F480E05AC08388D7
:104EB0009488A588B6888789803129F4BB27A72FD5
:104EC000962F852F09C0DB01CA01C7E0B695A795CB
:104ED00097958795CA95D1F7E9016A017B018F0102
:104EE000BC01CD01680D791D8A1D9B1D80900002BB
:104EF00090900102A0900202B0900302681579051B
:104F00008A059B0591F4F8018789803199F4DD24A5
:104F1000EE24FF24C601880F991FFC01EC53F94FC2
:104F200080819181A0E0B0E017C040E0BDDE81113A
:104F3000EACFBBCFE894C7F8DD24EE24FF24C601F6
:104F4000880F991F880F991FFC01EC53F94F80813E
:104F50009181A281B381BF7088839983AA83BB8327
:104F600081E0DF91CF911F910F91FF90EF90DF9043
:104F7000CF90BF90AF909F908F900895CF93DF9385
:104F8000EC018D81882309F18C8187FF1BC0CE0144
:104F9000F8D4FC01892BC9F08D81823040F48B89D3
:104FA0009C89AD89BE89848F958FA68FB78F8F8995
:104FB000988DA98DBA8D938F828FB58BA48B8C81A0
:104FC0008F778C83DF91CF9134CE80E0DF91CF91CA
:104FD00008958F929F92AF92BF92CF92DF92EF92FD
:104FE000FF920F931F93CF93DF93EC018D8181117B
:104FF00002C080E077C00B891C892D893E89041787
:10500000150726073707A8F36A017B01823029F4C8
:10501000CA86DB86EC86FD860DC0C114D104E1048E
:10502000F10451F41E821F82188619861A861B8687
:105030001C861D8681E056C08A849B84AC84BD8416
:10504000EB8DFC8D258530E0275F3F4FB501A40136
:105050004150510961097109022E04C07695679586
:10506000579547950A94D2F7D701C6010197A10930
:10507000B10904C0B695A795979587952A95D2F75B
:1050800084179507A607B70720F089288A288B2858
:1050900071F44F89588D698D7A8D4E835F8368874F
:1050A00079874C015D018E010A5F1F4F15C0841B7B
:1050B000950BA60BB70BF5CF4E815F81688579857F
:1050C00098018B8D9C8DD8DE91E0891A9108A108FA
:1050D000B108882309F48DCF81149104A104B1048F
:1050E00059F796CFDF91CF911F910F91FF90EF90DD
:1050F000DF90CF90BF90AF909F908F9008952F92A8
:105100003F924F925F926F927F928F929F92AF9257
:10511000BF92CF92DF92EF92FF920F931F93CF93A4
:10512000DF9300D01F92CDB7DEB78C015B011A016F
:10513000DC0115968C9115978130C1F414968C91F1
:1051400081FF14C082FF1CC0F8014389548965891E
:10515000768982859385A485B58584179507A607EA
:10516000B70771F0C80135DF81110AC081E090E016
:10517000D80113969C938E93129780E090E032C1F1
:10518000610183C05B968D919C915C97FC0174805A
:105190002FEF270D2A013B0139E07694679457944D
:1051A00047943A95D1F7722E74207A01F1E0FF22EC
:1051B000772009F476C080E092E08E199F094601BD
:1051C0008C159D0508F44C01D8015B962D913C91FE
:1051D0005C9716968D919D910D90BC91A02D029794
:1051E000A109B109F901058404C0880F991FAA1FFC
:1051F000BB1F0A94D2F74685578560897189840F51
:10520000951FA61FB71F9C01AD01270D311D411D24
:10521000511D29013A01811432E0930609F087C03B
:105220008091000290910102A0910202B0910302CC
:10523000481659066A067B0659F48FEF9FEFDC018A
:105240008093000290930102A0930202B0930302A4
:105250009501B301A20180916C0690916D060E94A8
:10526000891A882309F482CF9EEFB91AC818D90881
:10527000F80182859385A485B585880D991DA11DAA
:10528000B11D82879387A487B587D8011A964D915F
:105290005D916D917C911D97C114D10409F072CF7D
:1052A00084C0E114F10409F086CF16964D915D910A
:1052B0006D917C911997411551056105710559F45E
:1052C00057968D919D910D90BC91A02D0097A105B1
:1052D000B10539F520C09E012F5F3F4FCDDD8823FA
:1052E00009F44CCF89819A81AB81BC81F801238D6F
:1052F000348DF9012789203129F048EF5FEF6FEFF6
:105300007FE004C048EF5FEF60E070E0841795072E
:10531000A607B70730F0C8010E94071881114BCFCC
:1053200025CFF80186839783A087B18744CFE11406
:10533000F10421F5D8011A964D915D916D917C9102
:105340001D9753968D919D910D90BC91A02D48175E
:1053500059076A077B0790F06CDC882309F406CFB5
:105360004092000250920102609202027092030287
:105370008091760681608093760607C041E0C30184
:10538000B20192DC882309F4F1CED501F701EC5388
:10539000F94F9F01280D391D2E173F0719F08D91E8
:1053A0008193FACFA80CB91C61CFF8018389948945
:1053B000A589B68984179507A607B70738F4438BE4
:1053C000548B658B768B848180688483F80184811B
:1053D00083FD02C0C10106C0C801D0DD882309F4E5
:1053E000C5CEF8CF0F900F900F900F90DF91CF9117
:1053F0001F910F91FF90EF90DF90CF90BF90AF90F3
:105400009F908F907F906F905F904F903F902F90E4
:105410000895CF93DF931F92CDB7DEB7698341E044
:1054200050E0BE016F5F7F4F6ADE0F90DF91CF913A
:1054300008952F923F924F925F926F927F928F9238
:105440009F92AF92BF92CF92DF92EF92FF920F9313
:105450001F93CF93DF93CDB7DEB72C970FB6F89499
:10546000DEBF0FBECDBF7C01DC0115962C90211054
:1054700069C1FE013196CE010C966F0130E2319385
:105480008E179F07E1F7DA0130E087E09D919923BD
:1054900031F19E3231F48A3009F459C138E08AE0A2
:1054A000F5CFE3E3F4E04491442321F031969413E3
:1054B000FACF4DC1831708F44AC14FED490F4E355D
:1054C00008F045C141E0430FF601E30FF11D3FE94C
:1054D000390F3A3108F490529083342FD7CF898115
:1054E000803209F434C12C878B01FB01838D948DAC
:1054F000D7015C969C938E935B97168217821086D9
:1055000011861286138614861586B12CF8018285C1
:105510009385A485B58543895489658976898417DF
:105520009507A607B70708F05BC025E0B695A795D5
:10553000979587952A95D1F7F82FFF70AF2ED80150
:1055400015968C91823008F402C1C8010E94661B36
:1055500097FDFDC0F80182859385A485B5854F969A
:10556000A11DB11D82879387A487B587F0E2AF9E06
:10557000B00111246C53794F6115710509F4E7C02E
:10558000DB018C91882319F0853EC1F4DDC0B11098
:105590000EC0F701A28A8091000290910102A091B1
:1055A0000202B091030286879787A08BB18BDB0143
:1055B0008C91882399F0BB24B394A8CF4BE050E0A2
:1055C000C6010E946E44892B09F0A0CF8C858073A0
:1055D000803309F4BCC04C856A2DB0C0BB24B394A1
:1055E0008C858271823109F0B2C0BB2031F0C701D5
:1055F000C8D1009709F077C0AAC0F8018581823030
:1056000009F4A5C0C8010E940718882309F49FC0A7
:10561000D8015B96ED91FC915C9716968D909D90CC
:10562000AD90BC901997B2E08B1A9108A108B1080F
:10563000058404C0880C991CAA1CBB1C0A94D2F7D0
:1056400086859785A089B189880E991EAA1EBB1EE2
:105650003480E1E08E1A9108A108B108332001F1ED
:1056600024013501430C511C611C711CE2DA8823B2
:1056700009F46DC0E4ECF6E0119228E0E43CF20796
:10568000D9F7409200025092010260920202709299
:105690000302809176068160809376063A94DECF8D
:1056A000D8015B96ED91FC915C9780E092E0A0E0E0
:1056B000B0E0058404C0880F991FAA1FBB1F0A947D
:1056C000D2F7F8014389548965897689840F951F3B
:1056D000A61FB71F838B948BA58BB68BD7015296D1
:1056E0001C9284EC96E020E2FC0111922A95E9F7E5
:1056F0002BE0F601DC0101900D922A95E1F721E201
:1057000038E2DC0151963C932E93509740E058E0EC
:105710001F965C934E931E9753963C932E935297ED
:1057200059963C932E93589757965C934E93569761
:1057300080DA882361F04C85F7016289C70104D9BA
:10574000282E05C0212C03C0B11035CF22CF822DC9
:105750002C960FB6F894DEBF0FBECDBFDF91CF9170
:105760001F910F91FF90EF90DF90CF90BF90AF907F
:105770009F908F907F906F905F904F903F902F9071
:105780000895CF93DF93EC01F9DB882311F01D829C
:1057900081E0DF91CF910895CF92DF92EF92FF9257
:1057A000CF93DF93EC016A017B01E889F98982E0FC
:1057B00080834115514E61057105B1F060E079E0DB
:1057C0008DE390E0A70196010E94BA41DA01C90178
:1057D0000197A109B109B695A795979587959C0161
:1057E000211580E13807A8F0E889F989108260E87E
:1057F00074E88EE190E0A70196010E94BA41DA01B7
:10580000C9010197A109B109B695A7959795879503
:105810009C01EC85FD853083EE85FF852083188E05
:10582000EC89FD8986E08083EA89FB89808180613B
:105830008083EA89FB89808188608083EA89FB898B
:10584000808180688083EA89FB8980818F7D808365
:10585000DF91CF91FF90EF90DF90CF900895CF929E
:10586000DF92EF92FF920F931F93CF93DF937C0110
:105870006B018A01C0E0D0E00115110561F1D7018B
:10588000ED91FC910084F185E02DC7011995892BDC
:10589000C1F0D701ED91FC910284F385E02DC701A1
:1058A00019958D3061F38A3019F4209741F32AC09D
:1058B000F601EC0FFD1F80832196C034D105F8F26C
:1058C00021C001501109C1F261E070E080E090E078
:1058D0000E94C80CD1CFF601EC0FFD1F1082F7011A
:1058E0008585882391F0209781F0B60181E699E0C3
:1058F0000E94B022C034D10540F481E699E00E94B4
:10590000452203C000E010E0B7CFCE01DF91CF9178
:105910001F910F91FF90EF90DF90CF900895CF925D
:10592000DF92EF92FF920F931F93CF93DF9377FF56
:105930001DC06A017B01EC016DE20E94A9228C016D
:1059400044275527BA014C195D096E097F092AE0E1
:10595000CE010E94FC21800F911FDF91CF911F91FA
:105960000F91FF90EF90DF90CF9008952AE0DF91A4
:10597000CF911F910F91FF90EF90DF90CF900C94FB
:10598000FC21CF93DF93EC016E857F85888999890F
:1059900041E08AD9882341F08A8920E2829FC001B0
:1059A00011248C53994F02C080E090E0DF91CF9199
:1059B0000895FC01608171818FE89BE00C94B02216
:1059C0000F931F93CF93DF931F921F92CDB7DEB734
:1059D0008C018AE089831A8241E050E0BE016F5F4A
:1059E0007F4FC8010E94CB20811103C0C8010E94D3
:1059F000F820C8010F900F90DF91CF911F910F9168
:105A000008958091A1068111FCCF413208F040E257
:105A100081E08093A1068093A0069FEF90939F065C
:105A200010929E06940F90939D0680939C06809101
:105A30009C06660F682B60939C0680919B068130C4
:105A400061F410929B0680919C068093BB0080912C
:105A5000BC0083FDF8CF85EC01C085EE8093BC00CF
:105A60008091A1068130E1F380919E06841710F4A5
:105A700040919E06EBE7F6E0A4EAB6E080E08417EA
:105A800021F091919D938F5FFACF1092A30680939E
:105A9000A206089561E00C94BB02DC01ED91FC913B
:105AA0000190F081E02D1994CF93DF93EC01809168
:105AB000890B90918A0B0097C9F0688179816115F3
:105AC000710591F040918B0B50918C0B2C813D8195
:105AD0004217530748F00E9498448C819D8190930F
